:100000000C9434000C9451000C9451000C94510049
:100010000C9451000C9451000C9451000C9451001C
:100020000C9451000C9451000C9451000C94B600A7
:100030000C9451000C9451000C9451000C945100FC
:100040000C9451000C9451000C9451000C945100EC
:100050000C9451000C94CE000C9451000C9451005F
:100060000C9451000C94510011241FBECFEFD4E02A
:10007000DEBFCDBF11E0A0E0B1E0E6E9F3E002C0F1
:1000800005900D92A030B107D9F711E0A0E0B1E0E2
:1000900001C01D92A031B107E1F70E9435010C9417
:1000A000C9010C9400009093C5008093C40082E0C5
:1000B0008093C00088E18093C1008EE08093C200ED
:1000C0000895109285001092840081EE94E0909340
:1000D00089008093880090938B0080938A00E1E8E8
:1000E000F0E0808189608083EFE6F0E080818260CB
:1000F0008083B19A08958031E1F0813138F4843001
:1001000081F0883091F0823019F507C08034C9F051
:100110008038D9F08032E1F410C081E080937A0019
:1001200017C082E080937A0013C083E080937A0046
:100130000FC084E080937A000BC085E080937A0042
:1001400007C086E080937A0003C087E080937A003E
:1001500080E480937C00EAE7F0E088EE8083808191
:100160008061808385E080937B0008951F920F92C9
:100170000FB60F9211248F9380910901882329F0E3
:100180008091090181508093090186B3866086BB06
:100190008F910F900FBE0F901F9018951F920F9286
:1001A0000FB60F9211242F938F939F93EF93FF938A
:1001B0002091020180917800909179009695879521
:1001C00096958795EDE0F1E0E20FF11D8083809137
:1001D00002018F5F809302018330A8F01092020128
:1001E00080E480937C0080910D0180930A018091CE
:1001F0000E0180930B0180910F0180930C0181E02F
:100200008093010105C0ECE7F0E080818F5F80837F
:10021000FF91EF919F918F912F910F900FBE0F90B3
:100220001F901895CF93DF93662379F0A82FB92FED
:1002300090E0E0ECF0E0C6ECD0E0808185FFFDCFFF
:100240008D9188839F5F9617C1F7DF91CF910895B5
:100250008091C000882344F4A6ECB0E0E0ECF0E02C
:100260008C9180818823E4F308958CE090E00E94D3
:1002700053000E94610080E10E947B0078940E94FC
:10028000280184B7897F84BF2AE088E190E00FB617
:10029000F894A895809360000FBE20936000882496
:1002A000992403E011E0CAE0D1E0AA24A3947E01DE
:1002B0000894E11CF11CCC24DD246894C1F8CC0E18
:1002C000DD1E0F2EF0E5BF2EF02D0F2EF4E06F2E69
:1002D000F1E07F2EF02D0F2EF5E04F2EF1E05F2E96
:1002E000F02D80910101882309F451C01092010181
:1002F000C401F801E80FF91F4081442379F4FE019D
:10030000E80FF91F40814B30C0F4F801E80FF91FE6
:10031000A082FE01E80FF91F10820FC0FE01E80F56
:10032000F91F40814F3028F0F801E80FF91F1082C3
:1003300004C0FE01E80FF91F108201968330910579
:10034000C1F6888181608883F70180818E7F8083F8
:10035000F60180818E7F8083F8018081882341F0BF
:10036000F3018081882321F0F2018081882339F410
:10037000CE0163E00E941201B092090108C0809191
:100380000901882321F0CE0163E00E941201A895A3
:06039000A8CFF894FFCF96
:00000001FF
